{
  "transactions": [
    {
      "hash": "0xaef5126e3e2b7116b0190a1601d0b65aa163eaba52a08e92e72fcb65c3bd57f4",
      "transactionType": "CREATE",
      "contractName": "SafeBountyFund",
      "contractAddress": "0x8409b68ac606776c2bf28078529883542fcc4f96",
      "function": null,
      "arguments": [
        "0x56c9973Cd54b7Bb6Ce2b984904226fb1550286eB"
      ],
      "transaction": {
        "from": "0xf6da1082b2b8952c73ed7220db5df38aec56a1b2",
        "gas": "0x2c1db1",
        "value": "0x0",
        "input": "0x60c06040527f1ebfb986fbac5113f8e2c72286fe9362f8e7d211dbc68227a468d7b919e7500360809081527f10ec38f11baacad5535525bbe8e343074a483c051aa1616266f3b1df3fb7d20460a0526200005e9060019060026200017f565b503480156200006c57600080fd5b5060405162002783380380620027838339810160408190526200008f91620001d9565b803b620000af5760405163247512b560e11b815260040160405180910390fd5b600380546001600160a01b0319166001600160a01b038316179055620000d7600033620000de565b506200020b565b6000828152602081815260408083206001600160a01b038516845290915290205460ff166200017b576000828152602081815260408083206001600160a01b03851684529091529020805460ff191660011790556200013a3390565b6001600160a01b0316816001600160a01b0316837f2f8788117e7eff1d82e926ec794901d17c78024a50270940304540a733656f0d60405160405180910390a45b5050565b8260028101928215620001b0579160200282015b82811115620001b057825182559160200191906001019062000193565b50620001be929150620001c2565b5090565b5b80821115620001be5760008155600101620001c3565b600060208284031215620001ec57600080fd5b81516001600160a01b03811681146200020457600080fd5b9392505050565b612568806200021b6000396000f3fe608060405234801561001057600080fd5b50600436106100ea5760003560e01c806376b3e75e1161008c578063a217fddf11610066578063a217fddf1461021c578063a9ec656a14610224578063c2d7944414610244578063d547741f1461026b57600080fd5b806376b3e75e146101ac578063831e4ae0146101f657806391d148541461020957600080fd5b8063248a9ca3116100c8578063248a9ca3146101505780632f2ff15d1461017357806336568abe14610186578063625ad3201461019957600080fd5b806301ffc9a7146100ef578063183aaa39146101175780631e6065b91461013b575b600080fd5b6101026100fd366004612080565b61027e565b60405190151581526020015b60405180910390f35b61012d6101253660046120c0565b6101e0015190565b60405190815260200161010e565b61014e61014936600461214d565b6102b5565b005b61012d61015e366004612166565b60009081526020819052604090206001015490565b61014e61018136600461217f565b610502565b61014e61019436600461217f565b61052c565b61014e6101a73660046121bb565b6105aa565b6101e76101ba366004612166565b6004602052600090815260409020805460019091015460ff82169161010090046001600160a01b03169083565b60405161010e93929190612215565b61010261020436600461224e565b6107dc565b61010261021736600461217f565b6119e8565b61012d600081565b6102376102323660046120c0565b611a11565b60405161010e91906122b4565b61012d7f1597bc5e34ff090612f53164e4e642d2ab4fc78bffe19ed1b602a0d12559561a81565b61014e61027936600461217f565b611a39565b60006001600160e01b03198216637965db0b60e01b14806102af57506301ffc9a760e01b6001600160e01b03198316145b92915050565b60006102ed82610100016026806020026040519081016040528092919082602660200280828437600092019190915250610125915050565b60408051630418f25760e51b8152919250309163831e4ae09161032291869182019060c08301906101008401906004016122fb565b602060405180830381865afa15801561033f573d6000803e3d6000fd5b505050506040513d601f19601f820116820180604052508101906103639190612348565b6103805760405163712eb08760e01b815260040160405180910390fd5b60006103b883610100016026806020026040519081016040528092919082602660200280828437600092019190915250611a11915050565b60015481519192501415806103d35750600254602082015114155b156103f157604051631b2ff60b60e21b815260040160405180910390fd5b600082815260046020526040812060010154900361042a576040516339644ee760e01b8152600481018390526024015b60405180910390fd5b600160008381526004602052604090205460ff16600181111561044f5761044f6121dd565b0361046d57604051631a62a3d960e01b815260040160405180910390fd5b600082815260046020526040902060010154600354610499916001600160a01b03909116903390611a5e565b6000828152600460205260409081902090517f37572098abe817fbb5c6069a2260dc75a20880ab30f1768fb2ebae0c7ac09c8e916104d991339190612396565b60405180910390a1506000908152600460205260408120805460ff191660019081178255015550565b60008281526020819052604090206001015461051d81611ac1565b6105278383611acb565b505050565b6001600160a01b038116331461059c5760405162461bcd60e51b815260206004820152602f60248201527f416363657373436f6e74726f6c3a2063616e206f6e6c792072656e6f756e636560448201526e103937b632b9903337b91039b2b63360891b6064820152608401610421565b6105a68282611b4f565b5050565b7f1597bc5e34ff090612f53164e4e642d2ab4fc78bffe19ed1b602a0d12559561a6105d481611ac1565b6000838152600460205260409020600101541561060457604051630130a46960e21b815260040160405180910390fd5b6003546040516370a0823160e01b81523060048201526000916001600160a01b0316906370a0823190602401602060405180830381865afa15801561064d573d6000803e3d6000fd5b505050506040513d601f19601f8201168201806040525081019061067191906123b3565b60035490915061068c906001600160a01b0316333086611bb4565b6003546040516370a0823160e01b81523060048201526000916001600160a01b0316906370a0823190602401602060405180830381865afa1580156106d5573d6000803e3d6000fd5b505050506040513d601f19601f820116820180604052508101906106f991906123b3565b9050600061070783836123e2565b60408051606081019091529091508060008152336020808301919091526040918201849052600089815260049091522081518154829060ff191660018381811115610754576107546121dd565b021790555060208281015182546001600160a01b0390911661010002610100600160a81b03199091161782556040928301516001909201919091556000888152600490915281902090517fec1bb279c449fddb1e273bbba6c4482efe7c153bde4549d6f2a7881af39a8362916107cc918991906123f5565b60405180910390a1505050505050565b60006117aa565b7f30644e72e131a029b85045b68181585d97816a916871ca8d3c208c16d87cfd478110610814576000805260206000f35b50565b600060405183815284602082015285604082015260408160608360076107d05a03fa91508161084a576000805260206000f35b825160408201526020830151606082015260408360808360066107d05a03fa9150508061087b576000805260206000f35b5050505050565b7f0f9006886f6f20ff507615a18b97e3c01a4014043c38b27cde5a7cdf7dab0d7f85527f1e92b1b255ac9824dd1ee75e42c910e057e6dd572de9aad0494189943d373eb160208601526000608086018661091f87357f2cb53751205cf78a9cf5e100f215c610367178554c581286e82ce6894d769ee17f08c033375f7b9b4d4d21ab61cf95398b85ceab592496fac5e0278c847e67427684610817565b61096f60208801357f052490713e636a97e1fb031b2d3384c4ab2d6f6ed3ac9f459fac2d2ba4a1b2e07f01fd7cd23534b84d17783c31e441aa2eb95a050b9127e37a9f5587a1751f71eb84610817565b6109bf60408801357f256616621649a845cb66babd1f676ba44d689e683eb7eb53374e48b8e4c409b17f0b228257ad0859000e38bdf38ff787e6b829b3cd0040ab92164d6171f3b085ea84610817565b610a0f60608801357f186e961f4c05f1671f7994e4500382eefc07ea1ddc6a5a1a60f6ee347c7be0577f2979d724649fc184f1091abdedb64ea58401b0c0e54e9480a1c2ef5601c087e084610817565b610a5f60808801357f27081b7a953c3790bf751674a50a23821e7f3841d7b0418e61b5277d6aaa7ccc7f1fd8ffd81e555806ffdc9e0f034c1373ae012499e7e67d5edc01582790d4099384610817565b610aaf60a08801357f0e82363237a4dc55526e001eb1d695c3e9039986e9a2373455ba4b570acc72647f13498910321d23ea90b409e45e90c40e837c70eeffd5ca85a02eccbceade6b5384610817565b610aff60c08801357f2e2315c45313e02591ba43319399b74bedd9ced2793f602f6b22eafe003f8b4a7f203a8f7d111ad941e485f2692c256680b752edc3cd8ccd92e620cf17ff3534d284610817565b610b4f60e08801357f1e86fb929660fdaa69f10be5714651ed0de3dfd49f06238334f937d9d3e2733f7f21564b1e9db2b247e0921254e9f0f75e3fcbe2d1d30a202b2be65e4b18a152e084610817565b610ba06101008801357f016ec5dcb66e609a8d89e711444d32e586f662354e41084e2888ebb97f5b67227f1a71bfa4c37985b56863021a5c26e1a561cdd4cfa2f1aa9327f632b4670f524284610817565b610bf16101208801357f1831182339eb45624402af0e2887a9a93b33abc52c8d50096aca373449396cd67f15e1f2d6b38cae9960aceae8d832067aac43565737b79c4875b6dd7a67d4bfc984610817565b610c426101408801357f05dd559259952daad5ad52f86970c2fa050974d317cc2ad04dd58f59ecbc7e787f3020cdde5eb7df9c7afd526edb333a11dcdb1f271e3e7d31dac1ad0ddc7b755384610817565b610c936101608801357f1f63433f4731866908a7fdd84e9a6a9cc5584c8e9a6c9541183c17e018660f017f176401669c60e015427c97b4f4e756e9b12a249fbc767240a1b95b6e90339af884610817565b610ce46101808801357f1becf90ef08f14887607386cf5c4ae46eac76cc93f9b28e3dc6720f2a8636f727f266d92bb0c7cf54c13320ec43b304aae7c1e68ab8c633f6bc079beca7b83b8a884610817565b610d356101a08801357f0f16bca08d7672c2c6a70b097f780d92cb6abe71231530ab38be47ec4bb9f0657f1ecef5129f49f6c4f70856db2437c3342d840ef55e7f674431b39235bb32a2e584610817565b610d866101c08801357f0e57ec4267b4df8c79888d886080dddd7330233a9ea5489dbe03a388741adc657f0f8bf7735da92118f10b840163fc142a2f8c35c5daf732d0375f30ec021c382284610817565b610dd66101e08801357f25d3c509d8f46e27ef324e20dad1befe8f5ef4c5698065d8b2ec025b80a4bdb97e128ae85c76fbc1214b05cc94acb1a72e3f1fc009250a9a7c3eb907e1aaab4a84610817565b610e276102008801357f27529cf8c93cd529763ffa29d7b1b0bb845b2e4ee836bfa6fdc2a3f295a2a2a47f0b61bd21284bfb3849df98447bba37fd83979043923df5a5a1e2313f6c934fe784610817565b610e786102208801357f1d0690e56fd4ebdbeddc2c36d146a581f1bada3459fc0d22e6cf3a879d8e0bb27f2a4c8d4ce173db6c3151ff95771e5bc600454ba8d8e77d73d691d3b788f1547c84610817565b610ec96102408801357f2197d9057bcd8512d8bd10d708f9b9b983e30aa4206d0d298b1bfdb22c03af0d7f1f91c262234db447c7a42e2ac865dfc25173698c81f7150c1fc6e3f52152517484610817565b610f1a6102608801357f0ccf58b5f8b38c4fb71107eb3141fd4cd8835c1ac98ce069d17f483fda4902137f160261b562bb1c2e1adfbe16213ab10f1d65a9af797ff9fdf33cbaffdd8ff14a84610817565b610f6b6102808801357f06070cd76564f60c5cd3189dfd49e1aed642613d7d2361e1a8e522fa39e2139b7f06d6cb60a85a184ed8560777b4d6ea19d81cb7a5c1f2dc6a485edc4ceb40a26084610817565b610fbc6102a08801357f2fc55313fc9e16e0dda7103536e846ee999347ed86ad019229f031a19ed4634c7f0baae891783d92c0d64d955d136cbcebb2e38ae09dbfde150feee3c0b882a86584610817565b61100d6102c08801357f1d7c06c0d99ac359b5ef4753b1bf87d1a8fcffe2ce8cc05e92f39f1d027f43a47f065f3215077f26963b7171c9ff320db50fde64fb3dd2992595c11981b0bda98b84610817565b61105e6102e08801357f06fead1c35303d414ab4af9fda1e1fd929ef117d2cb5da0efc04f42bc9c6f0bb7f2484e7bd73447c5f7ce18f9df35f68977544ba54ba13a30555bbc0c11a8a427a84610817565b6110af6103008801357f1a2f48b9b4d7d54e7533ecce0c24385e6a2a65a9f073da49b169aa83444a2c787f2f68633a8f3f177d4be86b9e27b768b50cce1a9e304d44055081d1cf878c922d84610817565b6111006103208801357f2a74eb84308bc8b3e745cb7869a3301e4f7c6376639d186606ff9a27bad8cbd07f13ec3d5bd56285ef6ad6950716731c0347193d8cadd2b24f33b0bc49ea8b002784610817565b6111516103408801357f04a3a7a4b18f2e65b78613d067c00fc8e083e60aa927d230047343e15570c1647f1b27af4b6e4052e4c2820aa710903fc054cc14f34e5515d98f9db79108e7197e84610817565b6111a26103608801357f0a6a46ce4ff2fd7ec6b6bff4233f44cac59f12e27b2964aa4804a67b9cc179347f0466b278eb0e5e3a1117c981ee45eaa3fc9b99a65422bafc1ab3b2d35b25cb1784610817565b6111f36103808801357f2a0a97c04405a1f7fef7a27e4055bffc61bfa9213790043f44a58c97808466cd7f2d02b829f9fcf0d926ff84f19acd70edd1e3cebcb3d8992d08bb9abf65cc0b5a84610817565b6112446103a08801357f199dc24b47a01774b2ca14c6ebb1d6dbefd68f2910cea07a6f52a39a51e821b37f2e2acca1c520dbc0c6669c66d83c51d43ff7623e6e47e8b682b4b53c27fbee5484610817565b6112956103c08801357f10d9be99903ae31c2e662af507aeac7734dea024cdfca7d206aa20a47b893e707f15d021f30dff2805c0c2699359e2c1e1fd31ccaf156d2d38bbc1e1e2b42d91f184610817565b6112e66103e08801357f182f3ab3a4ff98f3885bd016f76eeec476ba1b76c323b1653ef6b80768a5a16b7f1f03120f3f56b9035896158416bc21b1b55938ca68811e0713ab85d2feee2b3e84610817565b6113376104008801357f0f86d0b5c22dce1b3919696027d8a6e866726b44893e19cf1384544d66758f6b7f1218fcad9b211671bc8484d52d665df07d2a87fdce5e2df8c05c643a627a532184610817565b6113886104208801357f29feae1b5b40d3a967d3696b9503cececda9980a7a0b51e3386778862673abd67f19abd3b165a28e010c686149f039ea919508d9373aca3096fe6fee3e63717a6e84610817565b6113d86104408801357f2c3c0a78a37f4cd21f164ffd0133f5d4cb2c0ad3ca4ce260a04930dac48cc5207e7169c644575f01b354a6f7633c7be48066117f6add439b6f745525017ac9c584610817565b6114286104608801357f0b793cba68e2710afcdb131342860cea217a60ab74f3f49bcf10bbf9ad78533b7eb9e02b1890acc5f73ac202170eeb3d99ab5d849179db2a443e20d5d71cfeb084610817565b6114796104808801357f06f371ff234dbbe385a7b198ec02fe2c3114696d09a9baacb27c91f2bedd20ae7f0d4adb8a04cae83cb1cd6867a50b8bb4e6f506b4f76de88d66188a2caeee25fb84610817565b6114ca6104a08801357f2274d3006c7891d6ffa5005462d890c9a3f06c2740684f17d98f4fc749dc04de7f0e38eb2cc3fd05d81d7991331e43a9cb3a39825b841d3abe9fbba1d50269445484610817565b50823581527f30644e72e131a029b85045b68181585d97816a916871ca8d3c208c16d87cfd4760208401357f30644e72e131a029b85045b68181585d97816a916871ca8d3c208c16d87cfd4703066020820152833560408201526020840135606082015260408401356080820152606084013560a08201527f2d4d9aa7e302d9df41749d5507949d05dbea33fbb16c643b22f599a2be6df2e260c08201527f14bedd503c37ceb061d8ec60209fe345ce89830a19230301f076caff004d192660e08201527f0967032fcbf776d1afc985f88877f182d38480a653f2decaa9794cbc3bf3060c6101008201527f0e187847ad4c798374d0d6732bf501847dd68bc0e071241e0213bc7fc13db7ab6101208201527f304cfbd1e08a704a99f5e847d93f8c3caafddec46b7a0d379da69a4d112346a76101408201527f1739c1b1a457a8c7313123d24d2f9192f896b7c63eea05a9d57f06547ad0cec8610160820152600087015161018082015260206000018701516101a08201527f198e9393920d483a7260bfb731fb5d25f1aa493335a9e71297e485b7aef312c26101c08201527f1800deef121f1e76426a00665e5c4479674322d4f75edadd46debd5cd992f6ed6101e08201527f090689d0585ff075ec9e99ad690c3395bc4b313370b38ef355acdadcd122975b6102008201527f12c85ea5db8c6deb4aab71808dcb408fe3d1e7690c43d37b4ce6cc0166fa7daa610220820152843561024082015260208501356102608201527f0a99859aa8393a5eca66946b5015eaa847991f8bc375aa6cf49fa75656c614a66102808201527f040455d90d2400b3bccf9ce7dcf376258d8a89bfef69a359795ee559e971cb436102a08201527f0aa97e6e93aadcbb21d5b5e193976fc8edea5b4e5400d438ee722ce8b12416bf6102c08201527f1df147cf091a2b6e12bec09ea95cf9d90d8684d8c987b3041b6c08724a262ad26102e08201526020816103008360086107d05a03fa9051169695505050505050565b60405161038081016040526117c260008401356107e3565b6117cf60208401356107e3565b6117dc60408401356107e3565b6117e960608401356107e3565b6117f660808401356107e3565b61180360a08401356107e3565b61181060c08401356107e3565b61181d60e08401356107e3565b61182b6101008401356107e3565b6118396101208401356107e3565b6118476101408401356107e3565b6118556101608401356107e3565b6118636101808401356107e3565b6118716101a08401356107e3565b61187f6101c08401356107e3565b61188d6101e08401356107e3565b61189b6102008401356107e3565b6118a96102208401356107e3565b6118b76102408401356107e3565b6118c56102608401356107e3565b6118d36102808401356107e3565b6118e16102a08401356107e3565b6118ef6102c08401356107e3565b6118fd6102e08401356107e3565b61190b6103008401356107e3565b6119196103208401356107e3565b6119276103408401356107e3565b6119356103608401356107e3565b6119436103808401356107e3565b6119516103a08401356107e3565b61195f6103c08401356107e3565b61196d6103e08401356107e3565b61197b6104008401356107e3565b6119896104208401356107e3565b6119976104408401356107e3565b6119a56104608401356107e3565b6119b36104808401356107e3565b6119c16104a08401356107e3565b6119cf6104c08401356107e3565b6119dc818486888a610882565b90508060005260206000f35b6000918252602082815260408084206001600160a01b0393909316845291905290205460ff1690565b611a19612062565b611a21612062565b6101a083015181526101c09092015160208301525090565b600082815260208190526040902060010154611a5481611ac1565b6105278383611b4f565b6040516001600160a01b03831660248201526044810182905261052790849063a9059cbb60e01b906064015b60408051601f198184030181529190526020810180516001600160e01b03166001600160e01b031990931692909217909152611bf2565b6108148133611cc7565b611ad582826119e8565b6105a6576000828152602081815260408083206001600160a01b03851684529091529020805460ff19166001179055611b0b3390565b6001600160a01b0316816001600160a01b0316837f2f8788117e7eff1d82e926ec794901d17c78024a50270940304540a733656f0d60405160405180910390a45050565b611b5982826119e8565b156105a6576000828152602081815260408083206001600160a01b0385168085529252808320805460ff1916905551339285917ff6391f5c32d9c69d2a47ea670b442974b53935d1edc7fd64eb21e047a839171b9190a45050565b6040516001600160a01b0380851660248301528316604482015260648101829052611bec9085906323b872dd60e01b90608401611a8a565b50505050565b6000611c47826040518060400160405280602081526020017f5361666545524332303a206c6f772d6c6576656c2063616c6c206661696c6564815250856001600160a01b0316611d209092919063ffffffff16565b9050805160001480611c68575080806020019051810190611c689190612348565b6105275760405162461bcd60e51b815260206004820152602a60248201527f5361666545524332303a204552433230206f7065726174696f6e20646964206e6044820152691bdd081cdd58d8d9595960b21b6064820152608401610421565b611cd182826119e8565b6105a657611cde81611d39565b611ce9836020611d4b565b604051602001611cfa92919061242d565b60408051601f198184030181529082905262461bcd60e51b8252610421916004016124a2565b6060611d2f8484600085611ee7565b90505b9392505050565b60606102af6001600160a01b03831660145b60606000611d5a8360026124d5565b611d659060026124ec565b67ffffffffffffffff811115611d7d57611d7d6120aa565b6040519080825280601f01601f191660200182016040528015611da7576020820181803683370190505b509050600360fc1b81600081518110611dc257611dc26122e5565b60200101906001600160f81b031916908160001a905350600f60fb1b81600181518110611df157611df16122e5565b60200101906001600160f81b031916908160001a9053506000611e158460026124d5565b611e209060016124ec565b90505b6001811115611e98576f181899199a1a9b1b9c1cb0b131b232b360811b85600f1660108110611e5457611e546122e5565b1a60f81b828281518110611e6a57611e6a6122e5565b60200101906001600160f81b031916908160001a90535060049490941c93611e91816124ff565b9050611e23565b508315611d325760405162461bcd60e51b815260206004820181905260248201527f537472696e67733a20686578206c656e67746820696e73756666696369656e746044820152606401610421565b606082471015611f485760405162461bcd60e51b815260206004820152602660248201527f416464726573733a20696e73756666696369656e742062616c616e636520666f6044820152651c8818d85b1b60d21b6064820152608401610421565b600080866001600160a01b03168587604051611f649190612516565b60006040518083038185875af1925050503d8060008114611fa1576040519150601f19603f3d011682016040523d82523d6000602084013e611fa6565b606091505b5091509150611fb787838387611fc4565b925050505b949350505050565b6060831561203357825160000361202c576001600160a01b0385163b61202c5760405162461bcd60e51b815260206004820152601d60248201527f416464726573733a2063616c6c20746f206e6f6e2d636f6e74726163740000006044820152606401610421565b5081611fbc565b611fbc83838151156120485781518083602001fd5b8060405162461bcd60e51b815260040161042191906124a2565b60405180604001604052806002906020820280368337509192915050565b60006020828403121561209257600080fd5b81356001600160e01b031981168114611d3257600080fd5b634e487b7160e01b600052604160045260246000fd5b60006104c08083850312156120d457600080fd5b83601f8401126120e357600080fd5b60405181810181811067ffffffffffffffff8211171561211357634e487b7160e01b600052604160045260246000fd5b60405290830190808583111561212857600080fd5b845b8381101561214257803582526020918201910161212a565b509095945050505050565b60006105c0828403121561216057600080fd5b50919050565b60006020828403121561217857600080fd5b5035919050565b6000806040838503121561219257600080fd5b8235915060208301356001600160a01b03811681146121b057600080fd5b809150509250929050565b600080604083850312156121ce57600080fd5b50508035926020909101359150565b634e487b7160e01b600052602160045260246000fd5b6002811061221157634e487b7160e01b600052602160045260246000fd5b9052565b6060810161222382866121f3565b6001600160a01b0393909316602082015260400152919050565b80604081018310156102af57600080fd5b6000806000806105c080868803121561226657600080fd5b612270878761223d565b945060c086018781111561228357600080fd5b604087019450612293888261223d565b9350508681870111156122a557600080fd5b50929591945092610100019150565b60408101818360005b60028110156122dc5781518352602092830192909101906001016122bd565b50505092915050565b634e487b7160e01b600052603260045260246000fd5b6105c081016040808784378083018660005b600281101561232a5783828437918301919083019060010161230d565b505050808560c0850137506104c08361010084013795945050505050565b60006020828403121561235a57600080fd5b81518015158114611d3257600080fd5b80546123798360ff83166121f3565b60081c6001600160a01b0316602083015260010154604090910152565b6001600160a01b038316815260808101611d32602083018461236a565b6000602082840312156123c557600080fd5b5051919050565b634e487b7160e01b600052601160045260246000fd5b818103818111156102af576102af6123cc565b82815260808101611d32602083018461236a565b60005b8381101561242457818101518382015260200161240c565b50506000910152565b7f416363657373436f6e74726f6c3a206163636f756e7420000000000000000000815260008351612465816017850160208801612409565b7001034b99036b4b9b9b4b733903937b6329607d1b6017918401918201528351612496816028840160208801612409565b01602801949350505050565b60208152600082518060208401526124c1816040850160208701612409565b601f01601f19169190910160400192915050565b80820281158282048414176102af576102af6123cc565b808201808211156102af576102af6123cc565b60008161250e5761250e6123cc565b506000190190565b60008251612528818460208701612409565b919091019291505056fea2646970667358221220c22636a7f22a9eaa05e35f14d5d69487d0a63b8738ee2c4065acd966e270707d64736f6c6343000813003300000000000000000000000056c9973cd54b7bb6ce2b984904226fb1550286eb",
        "nonce": "0x4b",
        "chainId": "0xaa36a7"
      },
      "additionalContracts": [],
      "isFixedGasLimit": false
    },
    {
      "hash": "0x3ca2408c1e2895e583a92ed74bd76b7dfe5df893d39e1c709c55b8b923cef974",
      "transactionType": "CALL",
      "contractName": "SafeBountyFund",
      "contractAddress": "0x8409b68ac606776c2bf28078529883542fcc4f96",
      "function": "grantRole(bytes32,address)",
      "arguments": [
        "0x0000000000000000000000000000000000000000000000000000000000000000",
        "0x199d51a2Be04C65f325908911430E6FF79a15ce3"
      ],
      "transaction": {
        "from": "0xf6da1082b2b8952c73ed7220db5df38aec56a1b2",
        "to": "0x8409b68ac606776c2bf28078529883542fcc4f96",
        "gas": "0x123a4",
        "value": "0x0",
        "input": "0x2f2ff15d0000000000000000000000000000000000000000000000000000000000000000000000000000000000000000199d51a2be04c65f325908911430e6ff79a15ce3",
        "nonce": "0x4c",
        "chainId": "0xaa36a7"
      },
      "additionalContracts": [],
      "isFixedGasLimit": false
    },
    {
      "hash": "0x5e308d5f313fac4f5290d23beef3a8909136a81c636ff74b8baca48bb742fa28",
      "transactionType": "CALL",
      "contractName": "SafeBountyFund",
      "contractAddress": "0x8409b68ac606776c2bf28078529883542fcc4f96",
      "function": "grantRole(bytes32,address)",
      "arguments": [
        "0x1597bc5e34ff090612f53164e4e642d2ab4fc78bffe19ed1b602a0d12559561a",
        "0x199d51a2Be04C65f325908911430E6FF79a15ce3"
      ],
      "transaction": {
        "from": "0xf6da1082b2b8952c73ed7220db5df38aec56a1b2",
        "to": "0x8409b68ac606776c2bf28078529883542fcc4f96",
        "gas": "0x125d5",
        "value": "0x0",
        "input": "0x2f2ff15d1597bc5e34ff090612f53164e4e642d2ab4fc78bffe19ed1b602a0d12559561a000000000000000000000000199d51a2be04c65f325908911430e6ff79a15ce3",
        "nonce": "0x4d",
        "chainId": "0xaa36a7"
      },
      "additionalContracts": [],
      "isFixedGasLimit": false
    },
    {
      "hash": "0x8396bd9f140d372e819c156024840902024f1fac4790edf239e59a8bc2b13880",
      "transactionType": "CALL",
      "contractName": "SafeBountyFund",
      "contractAddress": "0x8409b68ac606776c2bf28078529883542fcc4f96",
      "function": "grantRole(bytes32,address)",
      "arguments": [
        "0x1597bc5e34ff090612f53164e4e642d2ab4fc78bffe19ed1b602a0d12559561a",
        "0xF6dA1082b2b8952C73eD7220dB5Df38AEc56A1B2"
      ],
      "transaction": {
        "from": "0xf6da1082b2b8952c73ed7220db5df38aec56a1b2",
        "to": "0x8409b68ac606776c2bf28078529883542fcc4f96",
        "gas": "0x125d5",
        "value": "0x0",
        "input": "0x2f2ff15d1597bc5e34ff090612f53164e4e642d2ab4fc78bffe19ed1b602a0d12559561a000000000000000000000000f6da1082b2b8952c73ed7220db5df38aec56a1b2",
        "nonce": "0x4e",
        "chainId": "0xaa36a7"
      },
      "additionalContracts": [],
      "isFixedGasLimit": false
    },
    {
      "hash": "0xacf3268f49d2d2ee954b0f829ab44c4cbfa767b9d70aea8d7f389c42275dc418",
      "transactionType": "CALL",
      "contractName": null,
      "contractAddress": "0x56c9973cd54b7bb6ce2b984904226fb1550286eb",
      "function": "approve(address,uint256)",
      "arguments": [
        "0x8409b68aC606776C2BF28078529883542fCc4F96",
        "115792089237316195423570985008687907853269984665640564039457584007913129639935"
      ],
      "transaction": {
        "from": "0xf6da1082b2b8952c73ed7220db5df38aec56a1b2",
        "to": "0x56c9973cd54b7bb6ce2b984904226fb1550286eb",
        "gas": "0xfb46",
        "value": "0x0",
        "input": "0x095ea7b30000000000000000000000008409b68ac606776c2bf28078529883542fcc4f96ffffffffffffffffffffffffffffffffffffffffffffffffffffffffffffffff",
        "nonce": "0x4f",
        "chainId": "0xaa36a7"
      },
      "additionalContracts": [],
      "isFixedGasLimit": false
    },
    {
      "hash": "0x111b21088f8878ff1d45bb4d80c5ca93aaf541ec009198ebf2bc8d07a998a626",
      "transactionType": "CALL",
      "contractName": "SafeBountyFund",
      "contractAddress": "0x8409b68ac606776c2bf28078529883542fcc4f96",
      "function": "depositBounty(uint256,uint256)",
      "arguments": [
        "213102656137810142630059403125621749981",
        "7000000000000000000000"
      ],
      "transaction": {
        "from": "0xf6da1082b2b8952c73ed7220db5df38aec56a1b2",
        "to": "0x8409b68ac606776c2bf28078529883542fcc4f96",
        "gas": "0x25d1c",
        "value": "0x0",
        "input": "0x625ad32000000000000000000000000000000000a05214239d2f043cd7335bbaf81378dd00000000000000000000000000000000000000000000017b7883c06916600000",
        "nonce": "0x50",
        "chainId": "0xaa36a7"
      },
      "additionalContracts": [],
      "isFixedGasLimit": false
    },
    {
      "hash": "0x174756b4492cdc7b338a5f7f258995bbff16bb11c2093b544741518b6afd08bf",
      "transactionType": "CALL",
      "contractName": "SafeBountyFund",
      "contractAddress": "0x8409b68ac606776c2bf28078529883542fcc4f96",
      "function": "depositBounty(uint256,uint256)",
      "arguments": [
        "213102656137810142630059403125621749982",
        "7000000000000000000000"
      ],
      "transaction": {
        "from": "0xf6da1082b2b8952c73ed7220db5df38aec56a1b2",
        "to": "0x8409b68ac606776c2bf28078529883542fcc4f96",
        "gas": "0x21f03",
        "value": "0x0",
        "input": "0x625ad32000000000000000000000000000000000a05214239d2f043cd7335bbaf81378de00000000000000000000000000000000000000000000017b7883c06916600000",
        "nonce": "0x51",
        "chainId": "0xaa36a7"
      },
      "additionalContracts": [],
      "isFixedGasLimit": false
    },
    {
      "hash": "0x5d185857cd2fcb4b12be653bbc5b7c6bb3ce61d5d044fb4e89245d9976025b65",
      "transactionType": "CALL",
      "contractName": "SafeBountyFund",
      "contractAddress": "0x8409b68ac606776c2bf28078529883542fcc4f96",
      "function": "depositBounty(uint256,uint256)",
      "arguments": [
        "213102656137810142630059403125621749983",
        "7000000000000000000000"
      ],
      "transaction": {
        "from": "0xf6da1082b2b8952c73ed7220db5df38aec56a1b2",
        "to": "0x8409b68ac606776c2bf28078529883542fcc4f96",
        "gas": "0x21f03",
        "value": "0x0",
        "input": "0x625ad32000000000000000000000000000000000a05214239d2f043cd7335bbaf81378df00000000000000000000000000000000000000000000017b7883c06916600000",
        "nonce": "0x52",
        "chainId": "0xaa36a7"
      },
      "additionalContracts": [],
      "isFixedGasLimit": false
    },
    {
      "hash": "0xfd23b7c90b998a570a10dcdeed41415653c6d10115cc42435ebaeddf6411a245",
      "transactionType": "CALL",
      "contractName": "SafeBountyFund",
      "contractAddress": "0x8409b68ac606776c2bf28078529883542fcc4f96",
      "function": "depositBounty(uint256,uint256)",
      "arguments": [
        "121043452447619713051528617529666807030",
        "7000000000000000000000"
      ],
      "transaction": {
        "from": "0xf6da1082b2b8952c73ed7220db5df38aec56a1b2",
        "to": "0x8409b68ac606776c2bf28078529883542fcc4f96",
        "gas": "0x21f03",
        "value": "0x0",
        "input": "0x625ad320000000000000000000000000000000005b101ef780a359eb9195607f7561a4f600000000000000000000000000000000000000000000017b7883c06916600000",
        "nonce": "0x53",
        "chainId": "0xaa36a7"
      },
      "additionalContracts": [],
      "isFixedGasLimit": false
    },
    {
      "hash": "0xed76737afa5e301f7377c66f8322790272215585587f5b64e8b3febcc00e4449",
      "transactionType": "CALL",
      "contractName": "SafeBountyFund",
      "contractAddress": "0x8409b68ac606776c2bf28078529883542fcc4f96",
      "function": "depositBounty(uint256,uint256)",
      "arguments": [
        "213102656137810142630059403125621749985",
        "7000000000000000000000"
      ],
      "transaction": {
        "from": "0xf6da1082b2b8952c73ed7220db5df38aec56a1b2",
        "to": "0x8409b68ac606776c2bf28078529883542fcc4f96",
        "gas": "0x21f03",
        "value": "0x0",
        "input": "0x625ad32000000000000000000000000000000000a05214239d2f043cd7335bbaf81378e100000000000000000000000000000000000000000000017b7883c06916600000",
        "nonce": "0x54",
        "chainId": "0xaa36a7"
      },
      "additionalContracts": [],
      "isFixedGasLimit": false
    },
    {
      "hash": "0x5287ed88900ffcbe101be0fb68c95a50bb7752f19de7bb53aea20added09ebc0",
      "transactionType": "CALL",
      "contractName": "SafeBountyFund",
      "contractAddress": "0x8409b68ac606776c2bf28078529883542fcc4f96",
      "function": "depositBounty(uint256,uint256)",
      "arguments": [
        "213102656137810142630059403125621749986",
        "5000000000000000000000"
      ],
      "transaction": {
        "from": "0xf6da1082b2b8952c73ed7220db5df38aec56a1b2",
        "to": "0x8409b68ac606776c2bf28078529883542fcc4f96",
        "gas": "0x21f03",
        "value": "0x0",
        "input": "0x625ad32000000000000000000000000000000000a05214239d2f043cd7335bbaf81378e200000000000000000000000000000000000000000000010f0cf064dd59200000",
        "nonce": "0x55",
        "chainId": "0xaa36a7"
      },
      "additionalContracts": [],
      "isFixedGasLimit": false
    },
    {
      "hash": "0xc3a3cc6e8053ada0e659e7db732b476eea4d4e622637ac10122c17e48aaed048",
      "transactionType": "CALL",
      "contractName": "SafeBountyFund",
      "contractAddress": "0x8409b68ac606776c2bf28078529883542fcc4f96",
      "function": "depositBounty(uint256,uint256)",
      "arguments": [
        "212756365423530032915656252450088290525",
        "5000000000000000000000"
      ],
      "transaction": {
        "from": "0xf6da1082b2b8952c73ed7220db5df38aec56a1b2",
        "to": "0x8409b68ac606776c2bf28078529883542fcc4f96",
        "gas": "0x21f03",
        "value": "0x0",
        "input": "0x625ad32000000000000000000000000000000000a00f62b050075eb28a7e295b62ea08dd00000000000000000000000000000000000000000000010f0cf064dd59200000",
        "nonce": "0x56",
        "chainId": "0xaa36a7"
      },
      "additionalContracts": [],
      "isFixedGasLimit": false
    },
    {
      "hash": "0x9cf9f9eadcc4b48bc0a520a9a3bbeb199da4df549e8b8237f6e44d8d395e2cfe",
      "transactionType": "CALL",
      "contractName": "SafeBountyFund",
      "contractAddress": "0x8409b68ac606776c2bf28078529883542fcc4f96",
      "function": "depositBounty(uint256,uint256)",
      "arguments": [
        "213102656137810142630059403125621749987",
        "5000000000000000000000"
      ],
      "transaction": {
        "from": "0xf6da1082b2b8952c73ed7220db5df38aec56a1b2",
        "to": "0x8409b68ac606776c2bf28078529883542fcc4f96",
        "gas": "0x21f03",
        "value": "0x0",
        "input": "0x625ad32000000000000000000000000000000000a05214239d2f043cd7335bbaf81378e300000000000000000000000000000000000000000000010f0cf064dd59200000",
        "nonce": "0x57",
        "chainId": "0xaa36a7"
      },
      "additionalContracts": [],
      "isFixedGasLimit": false
    },
    {
      "hash": "0x545865985fd939007d295e1dfd4cc04d712e9753d086846c27953fa64efdc8d7",
      "transactionType": "CALL",
      "contractName": "SafeBountyFund",
      "contractAddress": "0x8409b68ac606776c2bf28078529883542fcc4f96",
      "function": "depositBounty(uint256,uint256)",
      "arguments": [
        "213102656137810142630059403125621749988",
        "4000000000000000000000"
      ],
      "transaction": {
        "from": "0xf6da1082b2b8952c73ed7220db5df38aec56a1b2",
        "to": "0x8409b68ac606776c2bf28078529883542fcc4f96",
        "gas": "0x200c7",
        "value": "0x0",
        "input": "0x625ad32000000000000000000000000000000000a05214239d2f043cd7335bbaf81378e40000000000000000000000000000000000000000000000d8d726b7177a800000",
        "nonce": "0x58",
        "chainId": "0xaa36a7"
      },
      "additionalContracts": [],
      "isFixedGasLimit": false
    }
  ],
  "receipts": [
    {
      "status": "0x1",
      "cumulativeGasUsed": "0xca1ed2",
      "logs": [
        {
          "address": "0x8409b68ac606776c2bf28078529883542fcc4f96",
          "topics": [
            "0x2f8788117e7eff1d82e926ec794901d17c78024a50270940304540a733656f0d",
            "0x0000000000000000000000000000000000000000000000000000000000000000",
            "0x000000000000000000000000f6da1082b2b8952c73ed7220db5df38aec56a1b2",
            "0x000000000000000000000000f6da1082b2b8952c73ed7220db5df38aec56a1b2"
          ],
          "data": "0x",
          "blockHash": "0x11780e65e71ecd5f655b7d7adc4a39f45f3ed28f2a428b439ba228e5716854c2",
          "blockNumber": "0x5b3522",
          "transactionHash": "0xaef5126e3e2b7116b0190a1601d0b65aa163eaba52a08e92e72fcb65c3bd57f4",
          "transactionIndex": "0x53",
          "logIndex": "0x83",
          "removed": false
        }
      ],
      "logsBloom": "0x00000004000000000000000000000000000000000000000000000000000020000000000000000000000000000000000000000000000000000000000000800000000000000000000000000000000000000000000000000000000000000000000000000000020004000000000000000800000000000000000000000000000000000000000000000000000000000000000000020000000000000000000000000000000000000000000000000000000000000000000000000000001000000000000000000000000000000000000000000000000000000000000100000000000020000000000000000000000000000000000080000000000000008000000000000000",
      "type": "0x2",
      "transactionHash": "0xaef5126e3e2b7116b0190a1601d0b65aa163eaba52a08e92e72fcb65c3bd57f4",
      "transactionIndex": "0x53",
      "blockHash": "0x11780e65e71ecd5f655b7d7adc4a39f45f3ed28f2a428b439ba228e5716854c2",
      "blockNumber": "0x5b3522",
      "gasUsed": "0x21f1f1",
      "effectiveGasPrice": "0x3ba2ac6c",
      "from": "0xf6da1082b2b8952c73ed7220db5df38aec56a1b2",
      "to": null,
      "contractAddress": "0x8409b68ac606776c2bf28078529883542fcc4f96"
    },
    {
      "status": "0x1",
      "cumulativeGasUsed": "0x682b07",
      "logs": [
        {
          "address": "0x8409b68ac606776c2bf28078529883542fcc4f96",
          "topics": [
            "0x2f8788117e7eff1d82e926ec794901d17c78024a50270940304540a733656f0d",
            "0x0000000000000000000000000000000000000000000000000000000000000000",
            "0x000000000000000000000000199d51a2be04c65f325908911430e6ff79a15ce3",
            "0x000000000000000000000000f6da1082b2b8952c73ed7220db5df38aec56a1b2"
          ],
          "data": "0x",
          "blockHash": "0x21664f536cc8e992bc1375147c6e2ff782b117ff1d4cb3c46ee955018fe30623",
          "blockNumber": "0x5b3524",
          "transactionHash": "0x3ca2408c1e2895e583a92ed74bd76b7dfe5df893d39e1c709c55b8b923cef974",
          "transactionIndex": "0x29",
          "logIndex": "0x3d",
          "removed": false
        }
      ],
      "logsBloom": "0x00000004000000000000000000000000000000000000000000000000000020000000000000000000000000040000000000000000000000000000000000800000000000000000000000000000000000000000000000000000000000000000000000000000020004000000000000000800000000000000000000000000000000000000000000000000000000000000000000820000000000000000000000000000000000000000000000000000000000000000000000000000001000000000000000000000000000000000000000000000000000000000000100000000000020000000000000000000000000000000000080000000800000008000000000000000",
      "type": "0x2",
      "transactionHash": "0x3ca2408c1e2895e583a92ed74bd76b7dfe5df893d39e1c709c55b8b923cef974",
      "transactionIndex": "0x29",
      "blockHash": "0x21664f536cc8e992bc1375147c6e2ff782b117ff1d4cb3c46ee955018fe30623",
      "blockNumber": "0x5b3524",
      "gasUsed": "0xc76a",
      "effectiveGasPrice": "0x3ba20d0b",
      "from": "0xf6da1082b2b8952c73ed7220db5df38aec56a1b2",
      "to": "0x8409b68ac606776c2bf28078529883542fcc4f96",
      "contractAddress": null
    },
    {
      "status": "0x1",
      "cumulativeGasUsed": "0x5c8b7a",
      "logs": [
        {
          "address": "0x8409b68ac606776c2bf28078529883542fcc4f96",
          "topics": [
            "0x2f8788117e7eff1d82e926ec794901d17c78024a50270940304540a733656f0d",
            "0x1597bc5e34ff090612f53164e4e642d2ab4fc78bffe19ed1b602a0d12559561a",
            "0x000000000000000000000000199d51a2be04c65f325908911430e6ff79a15ce3",
            "0x000000000000000000000000f6da1082b2b8952c73ed7220db5df38aec56a1b2"
          ],
          "data": "0x",
          "blockHash": "0x3e133686ef4a43b6692adad97055a612a422a00db6193a4bff5f3f2af141ea71",
          "blockNumber": "0x5b3525",
          "transactionHash": "0x5e308d5f313fac4f5290d23beef3a8909136a81c636ff74b8baca48bb742fa28",
          "transactionIndex": "0x2e",
          "logIndex": "0x54",
          "removed": false
        }
      ],
      "logsBloom": "0x00000004000000000000000000000000000000000000000000000000000020000000000000000000000000040000000000000000000000000000000100800000000000000000000000000000002000000000000000000000000000000000000000000000000004000000000000000000000100000000000000000000000000000000000000000000000000000000000000820000000000000000000000000000000000000000000000000000000000000000000000000000001000000000000000000000000000000000000000000000000000000000000100000000000000000000000000000000000000000000000080000000800000008000000000000000",
      "type": "0x2",
      "transactionHash": "0x5e308d5f313fac4f5290d23beef3a8909136a81c636ff74b8baca48bb742fa28",
      "transactionIndex": "0x2e",
      "blockHash": "0x3e133686ef4a43b6692adad97055a612a422a00db6193a4bff5f3f2af141ea71",
      "blockNumber": "0x5b3525",
      "gasUsed": "0xc8ea",
      "effectiveGasPrice": "0x3ba2d016",
      "from": "0xf6da1082b2b8952c73ed7220db5df38aec56a1b2",
      "to": "0x8409b68ac606776c2bf28078529883542fcc4f96",
      "contractAddress": null
    },
    {
      "status": "0x1",
      "cumulativeGasUsed": "0x75c3aa",
      "logs": [
        {
          "address": "0x8409b68ac606776c2bf28078529883542fcc4f96",
          "topics": [
            "0x2f8788117e7eff1d82e926ec794901d17c78024a50270940304540a733656f0d",
            "0x1597bc5e34ff090612f53164e4e642d2ab4fc78bffe19ed1b602a0d12559561a",
            "0x000000000000000000000000f6da1082b2b8952c73ed7220db5df38aec56a1b2",
            "0x000000000000000000000000f6da1082b2b8952c73ed7220db5df38aec56a1b2"
          ],
          "data": "0x",
          "blockHash": "0xcf0751bf60a93cc449bbe60514f26608a9d1c1aedac1c396b8da5aa63e96b68b",
          "blockNumber": "0x5b352b",
          "transactionHash": "0x8396bd9f140d372e819c156024840902024f1fac4790edf239e59a8bc2b13880",
          "transactionIndex": "0x33",
          "logIndex": "0x74",
          "removed": false
        }
      ],
      "logsBloom": "0x00000004000000000000000000000000000000000000000000000000000020000000000000000000000000000000000000000000000000000000000100800000000000000000000000000000002000000000000000000000000000000000000000000000000004000000000000000000000100000000000000000000000000000000000000000000000000000000000000020000000000000000000000000000000000000000000000000000000000000000000000000000001000000000000000000000000000000000000000000000000000000000000100000000000000000000000000000000000000000000000080000000000000008000000000000000",
      "type": "0x2",
      "transactionHash": "0x8396bd9f140d372e819c156024840902024f1fac4790edf239e59a8bc2b13880",
      "transactionIndex": "0x33",
      "blockHash": "0xcf0751bf60a93cc449bbe60514f26608a9d1c1aedac1c396b8da5aa63e96b68b",
      "blockNumber": "0x5b352b",
      "gasUsed": "0xc8ea",
      "effectiveGasPrice": "0x3ba1c82c",
      "from": "0xf6da1082b2b8952c73ed7220db5df38aec56a1b2",
      "to": "0x8409b68ac606776c2bf28078529883542fcc4f96",
      "contractAddress": null
    },
    {
      "status": "0x1",
      "cumulativeGasUsed": "0xbcd123",
      "logs": [
        {
          "address": "0x56c9973cd54b7bb6ce2b984904226fb1550286eb",
          "topics": [
            "0x8c5be1e5ebec7d5bd14f71427d1e84f3dd0314c0f7b2291e5b200ac8c7c3b925",
            "0x000000000000000000000000f6da1082b2b8952c73ed7220db5df38aec56a1b2",
            "0x0000000000000000000000008409b68ac606776c2bf28078529883542fcc4f96"
          ],
          "data": "0xffffffffffffffffffffffffffffffffffffffffffffffffffffffffffffffff",
          "blockHash": "0x8eba047d737bc2994ee9563be7bf530a1f40430600c04d9df14dcc08cc21a0e2",
          "blockNumber": "0x5b352c",
          "transactionHash": "0xacf3268f49d2d2ee954b0f829ab44c4cbfa767b9d70aea8d7f389c42275dc418",
          "transactionIndex": "0x5e",
          "logIndex": "0x90",
          "removed": false
        }
      ],
      "logsBloom": "0x00000000000000000000000000000000000400000000000000000000000000000000000000000000000000000000000020000000000000000000000000200000000000000000000000000000000000000000000000000000000000000000000000000000000004000000000000000000000000000000000000000000000000000000000000000000000000000000000000020000000000000000000000000000020000040000000000000000000000000000000000000000000000000000000000100000000000400000000000000000000000000000000000000000000000020010000000000000000000000000000080000000000000000000000000000000",
      "type": "0x2",
      "transactionHash": "0xacf3268f49d2d2ee954b0f829ab44c4cbfa767b9d70aea8d7f389c42275dc418",
      "transactionIndex": "0x5e",
      "blockHash": "0x8eba047d737bc2994ee9563be7bf530a1f40430600c04d9df14dcc08cc21a0e2",
      "blockNumber": "0x5b352c",
      "gasUsed": "0xb5ec",
      "effectiveGasPrice": "0x3ba26fa6",
      "from": "0xf6da1082b2b8952c73ed7220db5df38aec56a1b2",
      "to": "0x56c9973cd54b7bb6ce2b984904226fb1550286eb",
      "contractAddress": null
    },
    {
      "status": "0x1",
      "cumulativeGasUsed": "0x4e7d6b",
      "logs": [
        {
          "address": "0x56c9973cd54b7bb6ce2b984904226fb1550286eb",
          "topics": [
            "0xddf252ad1be2c89b69c2b068fc378daa952ba7f163c4a11628f55a4df523b3ef",
            "0x000000000000000000000000f6da1082b2b8952c73ed7220db5df38aec56a1b2",
            "0x0000000000000000000000008409b68ac606776c2bf28078529883542fcc4f96"
          ],
          "data": "0x00000000000000000000000000000000000000000000017b7883c06916600000",
          "blockHash": "0x997b9395ca4105c2d99d112d0bf7384bbf0dc038ed559ca242e2d34b842744d3",
          "blockNumber": "0x5b352f",
          "transactionHash": "0x111b21088f8878ff1d45bb4d80c5ca93aaf541ec009198ebf2bc8d07a998a626",
          "transactionIndex": "0x25",
          "logIndex": "0x35",
          "removed": false
        },
        {
          "address": "0x8409b68ac606776c2bf28078529883542fcc4f96",
          "topics": [
            "0xec1bb279c449fddb1e273bbba6c4482efe7c153bde4549d6f2a7881af39a8362"
          ],
          "data": "0x00000000000000000000000000000000a05214239d2f043cd7335bbaf81378dd0000000000000000000000000000000000000000000000000000000000000000000000000000000000000000f6da1082b2b8952c73ed7220db5df38aec56a1b200000000000000000000000000000000000000000000017b7883c06916600000",
          "blockHash": "0x997b9395ca4105c2d99d112d0bf7384bbf0dc038ed559ca242e2d34b842744d3",
          "blockNumber": "0x5b352f",
          "transactionHash": "0x111b21088f8878ff1d45bb4d80c5ca93aaf541ec009198ebf2bc8d07a998a626",
          "transactionIndex": "0x25",
          "logIndex": "0x36",
          "removed": false
        }
      ],
      "logsBloom": "0x00000000000000000000000000000000000400000000000000000000000020000000000000000000000000000000000020000000000000000000000000800000000000000000000000000008000000000000000000000000000000000000000000000000000004000000000000200000000000000000000001000010000000000000000000000000000000000000000000020000000000000000000000000000000000040000000000000000000000000000000000000000000000000000000000100002000000400010000000000000000000000000000000000000000000020000000000000000000000000000000080000000000000008000000000000000",
      "type": "0x2",
      "transactionHash": "0x111b21088f8878ff1d45bb4d80c5ca93aaf541ec009198ebf2bc8d07a998a626",
      "transactionIndex": "0x25",
      "blockHash": "0x997b9395ca4105c2d99d112d0bf7384bbf0dc038ed559ca242e2d34b842744d3",
      "blockNumber": "0x5b352f",
      "gasUsed": "0x1b617",
      "effectiveGasPrice": "0x3ba2b83b",
      "from": "0xf6da1082b2b8952c73ed7220db5df38aec56a1b2",
      "to": "0x8409b68ac606776c2bf28078529883542fcc4f96",
      "contractAddress": null
    },
    {
      "status": "0x1",
      "cumulativeGasUsed": "0xf21005",
      "logs": [
        {
          "address": "0x56c9973cd54b7bb6ce2b984904226fb1550286eb",
          "topics": [
            "0xddf252ad1be2c89b69c2b068fc378daa952ba7f163c4a11628f55a4df523b3ef",
            "0x000000000000000000000000f6da1082b2b8952c73ed7220db5df38aec56a1b2",
            "0x0000000000000000000000008409b68ac606776c2bf28078529883542fcc4f96"
          ],
          "data": "0x00000000000000000000000000000000000000000000017b7883c06916600000",
          "blockHash": "0x2ea739c222731479332257ecb57119eedec7e8f9c146fca0765dc940dce9600b",
          "blockNumber": "0x5b3533",
          "transactionHash": "0x174756b4492cdc7b338a5f7f258995bbff16bb11c2093b544741518b6afd08bf",
          "transactionIndex": "0x3f",
          "logIndex": "0x89",
          "removed": false
        },
        {
          "address": "0x8409b68ac606776c2bf28078529883542fcc4f96",
          "topics": [
            "0xec1bb279c449fddb1e273bbba6c4482efe7c153bde4549d6f2a7881af39a8362"
          ],
          "data": "0x00000000000000000000000000000000a05214239d2f043cd7335bbaf81378de0000000000000000000000000000000000000000000000000000000000000000000000000000000000000000f6da1082b2b8952c73ed7220db5df38aec56a1b200000000000000000000000000000000000000000000017b7883c06916600000",
          "blockHash": "0x2ea739c222731479332257ecb57119eedec7e8f9c146fca0765dc940dce9600b",
          "blockNumber": "0x5b3533",
          "transactionHash": "0x174756b4492cdc7b338a5f7f258995bbff16bb11c2093b544741518b6afd08bf",
          "transactionIndex": "0x3f",
          "logIndex": "0x8a",
          "removed": false
        }
      ],
      "logsBloom": "0x00000000000000000000000000000000000400000000000000000000000020000000000000000000000000000000000020000000000000000000000000800000000000000000000000000008000000000000000000000000000000000000000000000000000004000000000000200000000000000000000001000010000000000000000000000000000000000000000000020000000000000000000000000000000000040000000000000000000000000000000000000000000000000000000000100002000000400010000000000000000000000000000000000000000000020000000000000000000000000000000080000000000000008000000000000000",
      "type": "0x2",
      "transactionHash": "0x174756b4492cdc7b338a5f7f258995bbff16bb11c2093b544741518b6afd08bf",
      "transactionIndex": "0x3f",
      "blockHash": "0x2ea739c222731479332257ecb57119eedec7e8f9c146fca0765dc940dce9600b",
      "blockNumber": "0x5b3533",
      "gasUsed": "0x1734b",
      "effectiveGasPrice": "0x3ba0eec8",
      "from": "0xf6da1082b2b8952c73ed7220db5df38aec56a1b2",
      "to": "0x8409b68ac606776c2bf28078529883542fcc4f96",
      "contractAddress": null
    },
    {
      "status": "0x1",
      "cumulativeGasUsed": "0xeb5adc",
      "logs": [
        {
          "address": "0x56c9973cd54b7bb6ce2b984904226fb1550286eb",
          "topics": [
            "0xddf252ad1be2c89b69c2b068fc378daa952ba7f163c4a11628f55a4df523b3ef",
            "0x000000000000000000000000f6da1082b2b8952c73ed7220db5df38aec56a1b2",
            "0x0000000000000000000000008409b68ac606776c2bf28078529883542fcc4f96"
          ],
          "data": "0x00000000000000000000000000000000000000000000017b7883c06916600000",
          "blockHash": "0x15fbec327e15381d0f8e4ec84e099fe8faf34088cefd35ab48f0696478904aa0",
          "blockNumber": "0x5b3534",
          "transactionHash": "0x5d185857cd2fcb4b12be653bbc5b7c6bb3ce61d5d044fb4e89245d9976025b65",
          "transactionIndex": "0x50",
          "logIndex": "0x74",
          "removed": false
        },
        {
          "address": "0x8409b68ac606776c2bf28078529883542fcc4f96",
          "topics": [
            "0xec1bb279c449fddb1e273bbba6c4482efe7c153bde4549d6f2a7881af39a8362"
          ],
          "data": "0x00000000000000000000000000000000a05214239d2f043cd7335bbaf81378df0000000000000000000000000000000000000000000000000000000000000000000000000000000000000000f6da1082b2b8952c73ed7220db5df38aec56a1b200000000000000000000000000000000000000000000017b7883c06916600000",
          "blockHash": "0x15fbec327e15381d0f8e4ec84e099fe8faf34088cefd35ab48f0696478904aa0",
          "blockNumber": "0x5b3534",
          "transactionHash": "0x5d185857cd2fcb4b12be653bbc5b7c6bb3ce61d5d044fb4e89245d9976025b65",
          "transactionIndex": "0x50",
          "logIndex": "0x75",
          "removed": false
        }
      ],
      "logsBloom": "0x00000000000000000000000000000000000400000000000000000000000020000000000000000000000000000000000020000000000000000000000000800000000000000000000000000008000000000000000000000000000000000000000000000000000004000000000000200000000000000000000001000010000000000000000000000000000000000000000000020000000000000000000000000000000000040000000000000000000000000000000000000000000000000000000000100002000000400010000000000000000000000000000000000000000000020000000000000000000000000000000080000000000000008000000000000000",
      "type": "0x2",
      "transactionHash": "0x5d185857cd2fcb4b12be653bbc5b7c6bb3ce61d5d044fb4e89245d9976025b65",
      "transactionIndex": "0x50",
      "blockHash": "0x15fbec327e15381d0f8e4ec84e099fe8faf34088cefd35ab48f0696478904aa0",
      "blockNumber": "0x5b3534",
      "gasUsed": "0x1734b",
      "effectiveGasPrice": "0x3ba199e1",
      "from": "0xf6da1082b2b8952c73ed7220db5df38aec56a1b2",
      "to": "0x8409b68ac606776c2bf28078529883542fcc4f96",
      "contractAddress": null
    },
    {
      "status": "0x1",
      "cumulativeGasUsed": "0x6007dd",
      "logs": [
        {
          "address": "0x56c9973cd54b7bb6ce2b984904226fb1550286eb",
          "topics": [
            "0xddf252ad1be2c89b69c2b068fc378daa952ba7f163c4a11628f55a4df523b3ef",
            "0x000000000000000000000000f6da1082b2b8952c73ed7220db5df38aec56a1b2",
            "0x0000000000000000000000008409b68ac606776c2bf28078529883542fcc4f96"
          ],
          "data": "0x00000000000000000000000000000000000000000000017b7883c06916600000",
          "blockHash": "0x66a9210b1a99082773c81b4bb1a97d3ca0bc7258cedea727ee7d1c00b8cd2536",
          "blockNumber": "0x5b3535",
          "transactionHash": "0xfd23b7c90b998a570a10dcdeed41415653c6d10115cc42435ebaeddf6411a245",
          "transactionIndex": "0x34",
          "logIndex": "0x49",
          "removed": false
        },
        {
          "address": "0x8409b68ac606776c2bf28078529883542fcc4f96",
          "topics": [
            "0xec1bb279c449fddb1e273bbba6c4482efe7c153bde4549d6f2a7881af39a8362"
          ],
          "data": "0x000000000000000000000000000000005b101ef780a359eb9195607f7561a4f60000000000000000000000000000000000000000000000000000000000000000000000000000000000000000f6da1082b2b8952c73ed7220db5df38aec56a1b200000000000000000000000000000000000000000000017b7883c06916600000",
          "blockHash": "0x66a9210b1a99082773c81b4bb1a97d3ca0bc7258cedea727ee7d1c00b8cd2536",
          "blockNumber": "0x5b3535",
          "transactionHash": "0xfd23b7c90b998a570a10dcdeed41415653c6d10115cc42435ebaeddf6411a245",
          "transactionIndex": "0x34",
          "logIndex": "0x4a",
          "removed": false
        }
      ],
      "logsBloom": "0x00000000000000000000000000000000000400000000000000000000000020000000000000000000000000000000000020000000000000000000000000800000000000000000000000000008000000000000000000000000000000000000000000000000000004000000000000200000000000000000000001000010000000000000000000000000000000000000000000020000000000000000000000000000000000040000000000000000000000000000000000000000000000000000000000100002000000400010000000000000000000000000000000000000000000020000000000000000000000000000000080000000000000008000000000000000",
      "type": "0x2",
      "transactionHash": "0xfd23b7c90b998a570a10dcdeed41415653c6d10115cc42435ebaeddf6411a245",
      "transactionIndex": "0x34",
      "blockHash": "0x66a9210b1a99082773c81b4bb1a97d3ca0bc7258cedea727ee7d1c00b8cd2536",
      "blockNumber": "0x5b3535",
      "gasUsed": "0x1734b",
      "effectiveGasPrice": "0x3ba23aa5",
      "from": "0xf6da1082b2b8952c73ed7220db5df38aec56a1b2",
      "to": "0x8409b68ac606776c2bf28078529883542fcc4f96",
      "contractAddress": null
    },
    {
      "status": "0x1",
      "cumulativeGasUsed": "0x7b057a",
      "logs": [
        {
          "address": "0x56c9973cd54b7bb6ce2b984904226fb1550286eb",
          "topics": [
            "0xddf252ad1be2c89b69c2b068fc378daa952ba7f163c4a11628f55a4df523b3ef",
            "0x000000000000000000000000f6da1082b2b8952c73ed7220db5df38aec56a1b2",
            "0x0000000000000000000000008409b68ac606776c2bf28078529883542fcc4f96"
          ],
          "data": "0x00000000000000000000000000000000000000000000017b7883c06916600000",
          "blockHash": "0x5e19aa437bff7cc2a815e8d781aca1658016154bcb0b09d190e1ec635023b0ec",
          "blockNumber": "0x5b3536",
          "transactionHash": "0xed76737afa5e301f7377c66f8322790272215585587f5b64e8b3febcc00e4449",
          "transactionIndex": "0x43",
          "logIndex": "0x8e",
          "removed": false
        },
        {
          "address": "0x8409b68ac606776c2bf28078529883542fcc4f96",
          "topics": [
            "0xec1bb279c449fddb1e273bbba6c4482efe7c153bde4549d6f2a7881af39a8362"
          ],
          "data": "0x00000000000000000000000000000000a05214239d2f043cd7335bbaf81378e10000000000000000000000000000000000000000000000000000000000000000000000000000000000000000f6da1082b2b8952c73ed7220db5df38aec56a1b200000000000000000000000000000000000000000000017b7883c06916600000",
          "blockHash": "0x5e19aa437bff7cc2a815e8d781aca1658016154bcb0b09d190e1ec635023b0ec",
          "blockNumber": "0x5b3536",
          "transactionHash": "0xed76737afa5e301f7377c66f8322790272215585587f5b64e8b3febcc00e4449",
          "transactionIndex": "0x43",
          "logIndex": "0x8f",
          "removed": false
        }
      ],
      "logsBloom": "0x00000000000000000000000000000000000400000000000000000000000020000000000000000000000000000000000020000000000000000000000000800000000000000000000000000008000000000000000000000000000000000000000000000000000004000000000000200000000000000000000001000010000000000000000000000000000000000000000000020000000000000000000000000000000000040000000000000000000000000000000000000000000000000000000000100002000000400010000000000000000000000000000000000000000000020000000000000000000000000000000080000000000000008000000000000000",
      "type": "0x2",
      "transactionHash": "0xed76737afa5e301f7377c66f8322790272215585587f5b64e8b3febcc00e4449",
      "transactionIndex": "0x43",
      "blockHash": "0x5e19aa437bff7cc2a815e8d781aca1658016154bcb0b09d190e1ec635023b0ec",
      "blockNumber": "0x5b3536",
      "gasUsed": "0x1734b",
      "effectiveGasPrice": "0x3ba2fcf4",
      "from": "0xf6da1082b2b8952c73ed7220db5df38aec56a1b2",
      "to": "0x8409b68ac606776c2bf28078529883542fcc4f96",
      "contractAddress": null
    },
    {
      "status": "0x1",
      "cumulativeGasUsed": "0x7f88b0",
      "logs": [
        {
          "address": "0x56c9973cd54b7bb6ce2b984904226fb1550286eb",
          "topics": [
            "0xddf252ad1be2c89b69c2b068fc378daa952ba7f163c4a11628f55a4df523b3ef",
            "0x000000000000000000000000f6da1082b2b8952c73ed7220db5df38aec56a1b2",
            "0x0000000000000000000000008409b68ac606776c2bf28078529883542fcc4f96"
          ],
          "data": "0x00000000000000000000000000000000000000000000010f0cf064dd59200000",
          "blockHash": "0x39467e54ef485f0ddefcb741b901838607d7a0dd592c8a613c10b1ab56e857f3",
          "blockNumber": "0x5b353a",
          "transactionHash": "0x5287ed88900ffcbe101be0fb68c95a50bb7752f19de7bb53aea20added09ebc0",
          "transactionIndex": "0x53",
          "logIndex": "0x7b",
          "removed": false
        },
        {
          "address": "0x8409b68ac606776c2bf28078529883542fcc4f96",
          "topics": [
            "0xec1bb279c449fddb1e273bbba6c4482efe7c153bde4549d6f2a7881af39a8362"
          ],
          "data": "0x00000000000000000000000000000000a05214239d2f043cd7335bbaf81378e20000000000000000000000000000000000000000000000000000000000000000000000000000000000000000f6da1082b2b8952c73ed7220db5df38aec56a1b200000000000000000000000000000000000000000000010f0cf064dd59200000",
          "blockHash": "0x39467e54ef485f0ddefcb741b901838607d7a0dd592c8a613c10b1ab56e857f3",
          "blockNumber": "0x5b353a",
          "transactionHash": "0x5287ed88900ffcbe101be0fb68c95a50bb7752f19de7bb53aea20added09ebc0",
          "transactionIndex": "0x53",
          "logIndex": "0x7c",
          "removed": false
        }
      ],
      "logsBloom": "0x00000000000000000000000000000000000400000000000000000000000020000000000000000000000000000000000020000000000000000000000000800000000000000000000000000008000000000000000000000000000000000000000000000000000004000000000000200000000000000000000001000010000000000000000000000000000000000000000000020000000000000000000000000000000000040000000000000000000000000000000000000000000000000000000000100002000000400010000000000000000000000000000000000000000000020000000000000000000000000000000080000000000000008000000000000000",
      "type": "0x2",
      "transactionHash": "0x5287ed88900ffcbe101be0fb68c95a50bb7752f19de7bb53aea20added09ebc0",
      "transactionIndex": "0x53",
      "blockHash": "0x39467e54ef485f0ddefcb741b901838607d7a0dd592c8a613c10b1ab56e857f3",
      "blockNumber": "0x5b353a",
      "gasUsed": "0x1734b",
      "effectiveGasPrice": "0x3ba19787",
      "from": "0xf6da1082b2b8952c73ed7220db5df38aec56a1b2",
      "to": "0x8409b68ac606776c2bf28078529883542fcc4f96",
      "contractAddress": null
    },
    {
      "status": "0x1",
      "cumulativeGasUsed": "0x503d84",
      "logs": [
        {
          "address": "0x56c9973cd54b7bb6ce2b984904226fb1550286eb",
          "topics": [
            "0xddf252ad1be2c89b69c2b068fc378daa952ba7f163c4a11628f55a4df523b3ef",
            "0x000000000000000000000000f6da1082b2b8952c73ed7220db5df38aec56a1b2",
            "0x0000000000000000000000008409b68ac606776c2bf28078529883542fcc4f96"
          ],
          "data": "0x00000000000000000000000000000000000000000000010f0cf064dd59200000",
          "blockHash": "0xc82e10c507a6d0447dc8ed1fe24451c17b8ec4eab3d015b162bfcd9c2eded00a",
          "blockNumber": "0x5b353b",
          "transactionHash": "0xc3a3cc6e8053ada0e659e7db732b476eea4d4e622637ac10122c17e48aaed048",
          "transactionIndex": "0x42",
          "logIndex": "0x4e",
          "removed": false
        },
        {
          "address": "0x8409b68ac606776c2bf28078529883542fcc4f96",
          "topics": [
            "0xec1bb279c449fddb1e273bbba6c4482efe7c153bde4549d6f2a7881af39a8362"
          ],
          "data": "0x00000000000000000000000000000000a00f62b050075eb28a7e295b62ea08dd0000000000000000000000000000000000000000000000000000000000000000000000000000000000000000f6da1082b2b8952c73ed7220db5df38aec56a1b200000000000000000000000000000000000000000000010f0cf064dd59200000",
          "blockHash": "0xc82e10c507a6d0447dc8ed1fe24451c17b8ec4eab3d015b162bfcd9c2eded00a",
          "blockNumber": "0x5b353b",
          "transactionHash": "0xc3a3cc6e8053ada0e659e7db732b476eea4d4e622637ac10122c17e48aaed048",
          "transactionIndex": "0x42",
          "logIndex": "0x4f",
          "removed": false
        }
      ],
      "logsBloom": "0x00000000000000000000000000000000000400000000000000000000000020000000000000000000000000000000000020000000000000000000000000800000000000000000000000000008000000000000000000000000000000000000000000000000000004000000000000200000000000000000000001000010000000000000000000000000000000000000000000020000000000000000000000000000000000040000000000000000000000000000000000000000000000000000000000100002000000400010000000000000000000000000000000000000000000020000000000000000000000000000000080000000000000008000000000000000",
      "type": "0x2",
      "transactionHash": "0xc3a3cc6e8053ada0e659e7db732b476eea4d4e622637ac10122c17e48aaed048",
      "transactionIndex": "0x42",
      "blockHash": "0xc82e10c507a6d0447dc8ed1fe24451c17b8ec4eab3d015b162bfcd9c2eded00a",
      "blockNumber": "0x5b353b",
      "gasUsed": "0x1734b",
      "effectiveGasPrice": "0x3ba1f90b",
      "from": "0xf6da1082b2b8952c73ed7220db5df38aec56a1b2",
      "to": "0x8409b68ac606776c2bf28078529883542fcc4f96",
      "contractAddress": null
    },
    {
      "status": "0x1",
      "cumulativeGasUsed": "0x446411",
      "logs": [
        {
          "address": "0x56c9973cd54b7bb6ce2b984904226fb1550286eb",
          "topics": [
            "0xddf252ad1be2c89b69c2b068fc378daa952ba7f163c4a11628f55a4df523b3ef",
            "0x000000000000000000000000f6da1082b2b8952c73ed7220db5df38aec56a1b2",
            "0x0000000000000000000000008409b68ac606776c2bf28078529883542fcc4f96"
          ],
          "data": "0x00000000000000000000000000000000000000000000010f0cf064dd59200000",
          "blockHash": "0x43a97f640902706dfbd0dbb629b22264b6152e856115ca5c5505c816dd5fcbf2",
          "blockNumber": "0x5b353c",
          "transactionHash": "0x9cf9f9eadcc4b48bc0a520a9a3bbeb199da4df549e8b8237f6e44d8d395e2cfe",
          "transactionIndex": "0x31",
          "logIndex": "0x40",
          "removed": false
        },
        {
          "address": "0x8409b68ac606776c2bf28078529883542fcc4f96",
          "topics": [
            "0xec1bb279c449fddb1e273bbba6c4482efe7c153bde4549d6f2a7881af39a8362"
          ],
          "data": "0x00000000000000000000000000000000a05214239d2f043cd7335bbaf81378e30000000000000000000000000000000000000000000000000000000000000000000000000000000000000000f6da1082b2b8952c73ed7220db5df38aec56a1b200000000000000000000000000000000000000000000010f0cf064dd59200000",
          "blockHash": "0x43a97f640902706dfbd0dbb629b22264b6152e856115ca5c5505c816dd5fcbf2",
          "blockNumber": "0x5b353c",
          "transactionHash": "0x9cf9f9eadcc4b48bc0a520a9a3bbeb199da4df549e8b8237f6e44d8d395e2cfe",
          "transactionIndex": "0x31",
          "logIndex": "0x41",
          "removed": false
        }
      ],
      "logsBloom": "0x00000000000000000000000000000000000400000000000000000000000020000000000000000000000000000000000020000000000000000000000000800000000000000000000000000008000000000000000000000000000000000000000000000000000004000000000000200000000000000000000001000010000000000000000000000000000000000000000000020000000000000000000000000000000000040000000000000000000000000000000000000000000000000000000000100002000000400010000000000000000000000000000000000000000000020000000000000000000000000000000080000000000000008000000000000000",
      "type": "0x2",
      "transactionHash": "0x9cf9f9eadcc4b48bc0a520a9a3bbeb199da4df549e8b8237f6e44d8d395e2cfe",
      "transactionIndex": "0x31",
      "blockHash": "0x43a97f640902706dfbd0dbb629b22264b6152e856115ca5c5505c816dd5fcbf2",
      "blockNumber": "0x5b353c",
      "gasUsed": "0x1734b",
      "effectiveGasPrice": "0x3ba2ab6d",
      "from": "0xf6da1082b2b8952c73ed7220db5df38aec56a1b2",
      "to": "0x8409b68ac606776c2bf28078529883542fcc4f96",
      "contractAddress": null
    },
    {
      "status": "0x1",
      "cumulativeGasUsed": "0x88ffab",
      "logs": [
        {
          "address": "0x56c9973cd54b7bb6ce2b984904226fb1550286eb",
          "topics": [
            "0xddf252ad1be2c89b69c2b068fc378daa952ba7f163c4a11628f55a4df523b3ef",
            "0x000000000000000000000000f6da1082b2b8952c73ed7220db5df38aec56a1b2",
            "0x0000000000000000000000008409b68ac606776c2bf28078529883542fcc4f96"
          ],
          "data": "0x0000000000000000000000000000000000000000000000d8d726b7177a800000",
          "blockHash": "0x27438245c38de52c808f08fe9c3412ac93df201e3ac3c49111307306375f293c",
          "blockNumber": "0x5b353d",
          "transactionHash": "0x545865985fd939007d295e1dfd4cc04d712e9753d086846c27953fa64efdc8d7",
          "transactionIndex": "0x4a",
          "logIndex": "0x58",
          "removed": false
        },
        {
          "address": "0x8409b68ac606776c2bf28078529883542fcc4f96",
          "topics": [
            "0xec1bb279c449fddb1e273bbba6c4482efe7c153bde4549d6f2a7881af39a8362"
          ],
          "data": "0x00000000000000000000000000000000a05214239d2f043cd7335bbaf81378e40000000000000000000000000000000000000000000000000000000000000000000000000000000000000000f6da1082b2b8952c73ed7220db5df38aec56a1b20000000000000000000000000000000000000000000000d8d726b7177a800000",
          "blockHash": "0x27438245c38de52c808f08fe9c3412ac93df201e3ac3c49111307306375f293c",
          "blockNumber": "0x5b353d",
          "transactionHash": "0x545865985fd939007d295e1dfd4cc04d712e9753d086846c27953fa64efdc8d7",
          "transactionIndex": "0x4a",
          "logIndex": "0x59",
          "removed": false
        }
      ],
      "logsBloom": "0x00000000000000000000000000000000000400000000000000000000000020000000000000000000000000000000000020000000000000000000000000800000000000000000000000000008000000000000000000000000000000000000000000000000000004000000000000200000000000000000000001000010000000000000000000000000000000000000000000020000000000000000000000000000000000040000000000000000000000000000000000000000000000000000000000100002000000400010000000000000000000000000000000000000000000020000000000000000000000000000000080000000000000008000000000000000",
      "type": "0x2",
      "transactionHash": "0x545865985fd939007d295e1dfd4cc04d712e9753d086846c27953fa64efdc8d7",
      "transactionIndex": "0x4a",
      "blockHash": "0x27438245c38de52c808f08fe9c3412ac93df201e3ac3c49111307306375f293c",
      "blockNumber": "0x5b353d",
      "gasUsed": "0x1733f",
      "effectiveGasPrice": "0x3ba203e3",
      "from": "0xf6da1082b2b8952c73ed7220db5df38aec56a1b2",
      "to": "0x8409b68ac606776c2bf28078529883542fcc4f96",
      "contractAddress": null
    }
  ],
  "libraries": [],
  "pending": [],
  "returns": {},
  "timestamp": 1716673050,
  "chain": 11155111,
  "commit": "e027a05"
}